{
  "contractName": "Faucet",
  "abi": [
    {
      "inputs": [
        {
          "internalType": "address",
          "name": "",
          "type": "address"
        }
      ],
      "name": "funders",
      "outputs": [
        {
          "internalType": "bool",
          "name": "",
          "type": "bool"
        }
      ],
      "stateMutability": "view",
      "type": "function",
      "constant": true
    },
    {
      "inputs": [
        {
          "internalType": "uint256",
          "name": "",
          "type": "uint256"
        }
      ],
      "name": "lutFunders",
      "outputs": [
        {
          "internalType": "address",
          "name": "",
          "type": "address"
        }
      ],
      "stateMutability": "view",
      "type": "function",
      "constant": true
    },
    {
      "inputs": [],
      "name": "numOfFunders",
      "outputs": [
        {
          "internalType": "uint256",
          "name": "",
          "type": "uint256"
        }
      ],
      "stateMutability": "view",
      "type": "function",
      "constant": true
    },
    {
      "inputs": [],
      "name": "recieve",
      "outputs": [],
      "stateMutability": "payable",
      "type": "function",
      "payable": true
    },
    {
      "inputs": [],
      "name": "addFunds",
      "outputs": [],
      "stateMutability": "payable",
      "type": "function",
      "payable": true
    },
    {
      "inputs": [
        {
          "internalType": "uint256",
          "name": "index",
          "type": "uint256"
        }
      ],
      "name": "getFundersIndex",
      "outputs": [
        {
          "internalType": "address",
          "name": "",
          "type": "address"
        }
      ],
      "stateMutability": "view",
      "type": "function",
      "constant": true
    },
    {
      "inputs": [],
      "name": "getAllFunders",
      "outputs": [
        {
          "internalType": "address[]",
          "name": "",
          "type": "address[]"
        }
      ],
      "stateMutability": "view",
      "type": "function",
      "constant": true
    },
    {
      "inputs": [
        {
          "internalType": "uint256",
          "name": "withdrawAmount",
          "type": "uint256"
        }
      ],
      "name": "withdraw",
      "outputs": [],
      "stateMutability": "nonpayable",
      "type": "function"
    }
  ],
  "bytecode": "0x608060405234801561001057600080fd5b506108f6806100206000396000f3fe60806040526004361061007b5760003560e01c80636fbbb55d1161004e5780636fbbb55d14610160578063a26759cb1461018b578063a9e10bf214610195578063af7f2c9b1461019f5761007b565b8063031b3677146100805780631f8947ea146100bd5780632e1472de146100fa5780632e1a7d4d14610137575b600080fd5b34801561008c57600080fd5b506100a760048036038101906100a29190610574565b6101ca565b6040516100b491906105bc565b60405180910390f35b3480156100c957600080fd5b506100e460048036038101906100df919061060d565b6101ea565b6040516100f19190610649565b60405180910390f35b34801561010657600080fd5b50610121600480360381019061011c919061060d565b61021d565b60405161012e9190610649565b60405180910390f35b34801561014357600080fd5b5061015e6004803603810190610159919061060d565b61025a565b005b34801561016c57600080fd5b506101756102f1565b6040516101829190610722565b60405180910390f35b6101936103ea565b005b61019d610509565b005b3480156101ab57600080fd5b506101b461050b565b6040516101c19190610753565b60405180910390f35b60026020528060005260406000206000915054906101000a900460ff1681565b60016020528060005260406000206000915054906101000a900473ffffffffffffffffffffffffffffffffffffffff1681565b60006001600083815260200190815260200160002060009054906101000a900473ffffffffffffffffffffffffffffffffffffffff169050919050565b80670de0b6b3a76400008111156102a6576040517f08c379a000000000000000000000000000000000000000000000000000000000815260040161029d906107cb565b60405180910390fd5b3373ffffffffffffffffffffffffffffffffffffffff166108fc839081150290604051600060405180830381858888f193505050501580156102ec573d6000803e3d6000fd5b505050565b60606000805467ffffffffffffffff8111156103105761030f6107eb565b5b60405190808252806020026020018201604052801561033e5781602001602082028036833780820191505090505b50905060005b6000548110156103e2576001600082815260200190815260200160002060009054906101000a900473ffffffffffffffffffffffffffffffffffffffff168282815181106103955761039461081a565b5b602002602001019073ffffffffffffffffffffffffffffffffffffffff16908173ffffffffffffffffffffffffffffffffffffffff168152505080806103da90610878565b915050610344565b508091505090565b6000339050600260008273ffffffffffffffffffffffffffffffffffffffff1673ffffffffffffffffffffffffffffffffffffffff16815260200190815260200160002060009054906101000a900460ff1661050657600080600081548092919061045490610878565b9190505590506001600260008473ffffffffffffffffffffffffffffffffffffffff1673ffffffffffffffffffffffffffffffffffffffff16815260200190815260200160002060006101000a81548160ff021916908315150217905550816001600083815260200190815260200160002060006101000a81548173ffffffffffffffffffffffffffffffffffffffff021916908373ffffffffffffffffffffffffffffffffffffffff160217905550505b50565b565b60005481565b600080fd5b600073ffffffffffffffffffffffffffffffffffffffff82169050919050565b600061054182610516565b9050919050565b61055181610536565b811461055c57600080fd5b50565b60008135905061056e81610548565b92915050565b60006020828403121561058a57610589610511565b5b60006105988482850161055f565b91505092915050565b60008115159050919050565b6105b6816105a1565b82525050565b60006020820190506105d160008301846105ad565b92915050565b6000819050919050565b6105ea816105d7565b81146105f557600080fd5b50565b600081359050610607816105e1565b92915050565b60006020828403121561062357610622610511565b5b6000610631848285016105f8565b91505092915050565b61064381610536565b82525050565b600060208201905061065e600083018461063a565b92915050565b600081519050919050565b600082825260208201905092915050565b6000819050602082019050919050565b61069981610536565b82525050565b60006106ab8383610690565b60208301905092915050565b6000602082019050919050565b60006106cf82610664565b6106d9818561066f565b93506106e483610680565b8060005b838110156107155781516106fc888261069f565b9750610707836106b7565b9250506001810190506106e8565b5085935050505092915050565b6000602082019050818103600083015261073c81846106c4565b905092915050565b61074d816105d7565b82525050565b60006020820190506107686000830184610744565b92915050565b600082825260208201905092915050565b7f63616e6e6f74207769746864726177206d6f7265207468616e20312065746800600082015250565b60006107b5601f8361076e565b91506107c08261077f565b602082019050919050565b600060208201905081810360008301526107e4816107a8565b9050919050565b7f4e487b7100000000000000000000000000000000000000000000000000000000600052604160045260246000fd5b7f4e487b7100000000000000000000000000000000000000000000000000000000600052603260045260246000fd5b7f4e487b7100000000000000000000000000000000000000000000000000000000600052601160045260246000fd5b6000610883826105d7565b91507fffffffffffffffffffffffffffffffffffffffffffffffffffffffffffffffff82036108b5576108b4610849565b5b60018201905091905056fea2646970667358221220e4d7aeb92152d0f4767fcc02093d1af0a1da9579c2d2657aae8469fcc3f3776764736f6c63430008130033",
  "immutableReferences": {},
  "source": "//SPDX-License-Identifier: MIT\r\npragma solidity >=0.4.22 <0.9.0;\r\n\r\ncontract Faucet {\r\n    // add fun , withdraw, addressindex, getfunder\r\n    uint256 public numOfFunders;\r\n    mapping(uint256 => address) public lutFunders;\r\n    mapping(address => bool) public funders;\r\n\r\n    function recieve() external payable {}\r\n\r\n    function addFunds() external payable {\r\n        address funder = msg.sender;\r\n\r\n        if (!funders[funder]) {\r\n            uint index = numOfFunders++;\r\n            funders[funder] = true;\r\n            lutFunders[index] = funder;\r\n        }\r\n    }\r\n\r\n    function getFundersIndex(uint256 index) external view returns (address) {\r\n        return lutFunders[index];\r\n    }\r\n\r\n    function getAllFunders() external view returns (address[] memory) {\r\n        address[] memory _funders = new address[](numOfFunders);\r\n\r\n        for (uint256 i = 0; i < numOfFunders; i++) {\r\n            _funders[i] = lutFunders[i];\r\n        }\r\n        return _funders;\r\n    }\r\n\r\n    function withdraw(\r\n        uint256 withdrawAmount\r\n    ) external limitWithdraw(withdrawAmount) {\r\n        payable(msg.sender).transfer(withdrawAmount);\r\n    }\r\n\r\n    modifier limitWithdraw(uint256 withdrawAmount) {\r\n        require(\r\n            withdrawAmount <= 1 * (10 ** 18),\r\n            \"cannot withdraw more than 1 eth\"\r\n        );\r\n        _;\r\n    }\r\n}\r\n",
  "sourcePath": "D:\\bc\\project\\faucet\\faucet\\contracts\\faucet.sol",
  "compiler": {
    "name": "solc",
    "version": "0.8.19+commit.7dd6d404.Emscripten.clang"
  },
  "schemaVersion": "3.4.13",
  "updatedAt": "2023-06-12T17:09:47.848Z",
  "networkType": "ethereum",
  "devdoc": {
    "kind": "dev",
    "methods": {},
    "version": 1
  },
  "userdoc": {
    "kind": "user",
    "methods": {},
    "version": 1
  }
}